:020000020000FC
:2000000000400034086008140800683A00000000000000000000000000000000000000003E
:2000080006C00074DEC0001406800074D6882F140008A8C00008B100003FFF06DEFFFC0407
:20001000DFC00315DF000215DF000204E03FFE150080007410840004E0BFFF15E0FFFF17D8
:2000180000AAC4F410B37BC418800015E0BFFF171080010410000015E0BFFF1710800104FE
:2000200000C0004410C000150001883AE0BFFF17108002041080001710800058103FFB1ED2
:20002800E0BFFF1710800117E0BFFE15E17FFE170100007421277104000811C001000074B4
:20003000212773040008B8C00005883AE037883ADFC00117DF000017DEC00204F800283A26
:20003800DEFFFD04DFC00015D9800115D9C0021520C002170180007431A1C70419800115BD
:20004000280D883A21400217D9C0010400081D40DFC00017DEC00304F800283ADEFFFC049A
:20004800DFC00015D9400115D9800215D9C003150080007410A83004108000170140007458
:200050002961C70410C00217D980010419400115200B883A1100021700087000DFC0001740
:20005800DEC00404F800283ADEFFFB04DC800315DC400215DC000115DFC004152025883A54
:200060002823883AD98000053821883A04000A0E8880011701C00044D80D883A880B883ABD
:200068009009883A103EE83A843FFFC4103FF72600BFFFC4000001060005883ADFC00417B1
:20007000DC800317DC400217DC000117DEC00504F800283ADEFFE504D8C00804DDC018159C
:20007800DD801715DD401615DD001515DCC01415DC801315DC401215DC001115DFC01A1534
:20008000DF0019152029883A2823883A382D883AD9800F150021883AD8000E15D8000A15C2
:20008800002B883A0027883A0025883AD8000C15D8000B15002F883AD8C00915D8C00F1745
:200090001900000320803FCC1080201C10BFE00410011E2600C00044B8C014261DC002160A
:20009800B80006260001150601400084B9401D26014000C4B9402B26000110060140094453
:2000A0001140FC2688800117D900000501C00044D80D883A880B883AA009883A103EE83AF3
:2000A8001000D81E840000440001040601400C041140FA260140094411400A1ED880000539
:2000B00088800117B80F883AD80D883A880B883AA009883A103EE83A1000CA1E84000044F0
:2000B8000000F50625FFF404BDC03FCC00C002441DC0093600BFFFC49080042601400284E4
:2000C0009009883A00089FC0000001060005883AB8A5883A0000E20601400B841140E4265E
:2000C80005C00084213FF40427003FCC00C002441F00093600BFFFC4988004260140028456
:2000D0009809883A00089FC0000001060005883AE0A7883A0000D90600C01B0410C0D226A9
:2000D800013FFFC499000226D8000B150000010604C0004401001A441100162620800916D2
:2000E000010018C4110088260100190411001126010016041100C81E00C00044D8C00E152D
:2000E8000000150601001CC4110098262080041601001BC41100C01E0540020400000F0644
:2000F00001001D4411000D2601001E0411000A260000B906D8C00A17B7000104180007266D
:2000F800DF000D15B5C00017B800080E05EFC83A024000440000060605400404B0C0010443
:20010000D8C00D15B5C00017D8000A150013883AD839883AB8001726A80B883AB809883A0D
:20010800DA40101500089400A80B883A1009883A102D883A00089FC0B885C83A00C0024401
:20011000DA4010171880021610800C0400000506D8C00E171800022610800DC400000106CE
:20011800108015C4E0800005B02F883AE7000044003FE806E6EFC83A9DC5C83A0080090E2E
:20012000E085883A01400C04D8C00917E009883AE0C0032EE700004421400005E0BFFA1ECB
:20012800E6EFC83AD8C00B174DD1883A922DC83A1800162648000A2600800B44D880080585
:200130008880011701C00044D9800804880B883AA009883A103EE83A10004A1E84000044B5
:200138000580070EB00F883A01800C04880B883AA009883A000816801000421E85A1883A45
:20014000E02D883ABF2FC83A000020060580090EB00F883A01800804880B883AA009883A50
:20014800DA40101500081680DA4010171000351E85A1883A483FF22600800B44D88008055B
:200150008880011701C00044D9800804880B883AA009883A103EE83A10002A1E84000044B5
:20015800003FE706B5BFFFC4B080000301C00044D9800804D880080588800117880B883AAD
:20016000A009883A103EE83A10001E1E8585C83AB5C9883AE085883A013FF2161021883AAA
:20016800DD800D1700004406008000441480080E95FFFFC4B80F883A01800804880B883A7C
:20017000A009883A0008168010000E1E85E1883AB080001701C00044D80D883AD8800005B2
:2001780088800117880B883AA009883AB5C00104103EE83A1000031E84000044B82D883AFD
:2001800000002D0600BFFFC400003106B5C00017B7000104B809883A00087D409091C83AC0
:20018800102D883A0200090E400F883A01800804880B883AA009883ADA0010150008168044
:20019000DA001017103FEF1E8221883A88800117B00F883AB80D883A880B883AA009883AA5
:20019800103EE83A103FE71E85A1883AE02D883A0000110600C0004404FFFFC4D8000E15F0
:2001A000D8C00A15054002849825883AD8000C15D8000B15182F883A00000806DDC00B1579
:2001A80005C000840000050600C00044D8C00C1505C000C400000106002F883AD8C00F17E7
:2001B00018C00044D8C00F15003EDC068005883ADFC01A17DF001917DDC01817DD801717BA
:2001B800DD401617DD001517DCC01417DC801317DC401217DC001117DEC01B04F800283A27
:2001C0000080007410A83004300F883A280D883A200B883A1100001700081D412880000B19
:2001C8001080020C100021262880008FDEFFFA04DC000015DFC00515DD000415DCC00315BC
:2001D000DC800215DC4001152821883A100012162027883A3025883A3823883A05010004E0
:2001D80004400B0E880F883AA440010E01C100048140008F900D883A9809883A00087F00FF
:2001E0000080050E88A3C83A90A5883A003FF4060005883A000007068080000B108010147C
:2001E8008080000D00BFFFC40000020600BFFFC4F800283ADFC00517DD000417DCC003171B
:2001F000DC800217DC400117DC000017DEC00604F800283A2005883A10C000071800022653
:2001F80010800044003FFC061105C83AF800283ADEFFFD04DC00001504000074DC400115E7
:200200008428EC042023883A2809883A300B883A380D883ADFC00215800000150008C040F3
:2002080000FFFFC410C0031E80C000171800012688C00015DFC00217DC400117DC00001751
:20021000DEC00304F800283A20001B16000F883A28001616200D883A29001A2E008008046D
:2002180000C000440000010610000D26294B883A10BFFFC418C7883A293FFB360005883AAF
:20022000180007260005883A31400236314DC83A10C4B03A1806D07A280AD07A183FFA1E78
:20022800380001260085C83AF800283A014BC83A39C0005C003FE7060109C83A01C0004496
:20023000003FE30600C00044003FEE0620001716000F883A2005883A280012162900162E8D
:200238000180080400C000440000010630000A26294B883A31BFFFC418C7883A293FFB368B
:20024000180005261806D07A114001361145C83A280AD07A183FFB1E380001260085C83A41
:20024800F800283A014BC83A003FEC060109C83A01C00044003FE70600C00044003FF10646
:20025000200D883A2900152E280014160080080400C000440000020610000E2628000516C2
:20025800294B883A10BFFFC418C7883A293FFA36180008260005883A31400236314DC83A4F
:2002600010C4B03A1806D07A280AD07A183FFA1EF800283A0005883AF800283A00C00044EE
:20026800003FF4062005883A2900122E280011160180080400C000440000020630000C26A3
:2002700028000516294B883A31BFFFC418C7883A293FFA36180006261806D07A11400136D5
:200278001145C83A280AD07A183FFB1EF800283AF800283A00C00044003FF7060005883A67
:200280002000072620C0004C2008D07A180001261145883A294B883A203FFA1EF800283A15
:20028800F800283ADEFFFC04DF000315DF000304E13FFD15E17FFE15E1BFFF15E0FFFE17F5
:20029000E0BFFD1718800C2600000806E0BFFE1710C00104E0FFFE15E0FFFD171900010437
:20029800E13FFD1518C0001710C00015E0FFFE17E0BFFF1718BFF51E0001883AE037883A11
:2002A000DF000017DEC00104F800283ADEFFFE04DFC00115DF000015D839883A01800074FB
:2002A80031A83704014000742967820401000074212837040008A2400180007431A00804A2
:2002B000014000742960080401000074212008040008A2400180007431A782040140007430
:2002B8002967710401000074212771040008A24000090F8000092E400001883AE037883A5A
:2002C000DFC00117DF000017DEC00204F800283ADEFFFD04DFC00215DF000115DF00010406
:2002C8000009883A0008D3800001883A0008D7000180007431A7750401400074296775044A
:2002D000010000742127750400093E8000092240010000742124A10400099EC0D0A0BE179B
:2002D800D0E0BF17D120C017200D883A180B883A1009883A000803C0E0BFFF150100004446
:2002E00000090200E13FFF170009A000DEFFFD04DFC00215DF000115DF000104E13FFF1573
:2002E800D0A0011710800217100B883AE13FFF170009A200E037883ADFC00117DF00001781
:2002F000DEC00204F800283ADEFFFE04DFC00115DF000015D839883AD0A0071710000326CE
:2002F800D0A00717103EE83A00000106D0A0BD04E037883ADFC00117DF000017DEC0020486
:20030000F800283ADEFFF904DFC00615DF000515DF000504E13FFD15E17FFE15E1BFFF15B5
:20030800E0BFFD171000081601400304E13FFD1700089FC01007883A0080007410A7CF04BA
:200310001885883A000001060005883AE0BFFB15E0BFFB1710002126E0BFFB17108002178F
:20031800108000CC10001826E0BFFB17108000171080061710001426E0BFFB171080001774
:2003200010800617E0FFFF17180D883AE17FFE17E13FFB17103EE83AE0BFFC15E0BFFC17BB
:200328001000070E0008BC801007883AE0BFFC170085C83A1880001500BFFFC400000C06F9
:20033000E0BFFC1700000A060008BC801007883A0080034418800015000004060008BC800C
:200338001007883A008014441880001500BFFFC4E037883ADFC00117DF000017DEC002049B
:20034000F800283ADEFFFD04DFC00215DF000115DF000104E13FFF15D1600404E13FFF1733
:2003480000091800E037883ADFC00117DF000017DEC00204F800283ADEFFFD04DFC002155C
:20035000DF000115DF000104E13FFF15000976C0008000441001703A0001883AE037883A26
:20035800DFC00117DF000017DEC00204F800283ADEFFFE04DFC00115DF000015D839883A7F
:20036000010000742127BA040008D0400001883AE037883ADFC00117DF000017DEC00204FD
:20036800F800283ADEFFFA04DFC00515DF000415DF000404E13FFD15E17FFE15E1BFFF154F
:20037000E0BFFD1710800017E0BFFC15E0BFFC1710C00A04E0BFFD1710800217100F883A96
:20037800E1BFFF17E17FFE171809883A0008E640E037883ADFC00117DF000017DEC00204FF
:20038000F800283ADEFFFA04DFC00515DF000415DF000404E13FFD15E17FFE15E1BFFF1537
:20038800E0BFFD1710800017E0BFFC15E0BFFC1710C00A04E0BFFD1710800217100F883A7E
:20039000E1BFFF17E17FFE171809883A0008F500E037883ADFC00117DF000017DEC0020418
:20039800F800283ADEFFF704DF000815DF000804E13FFC15E17FFD15E1BFFE15E1FFFF15E2
:2003A000E0BFFC1710800017E0BFF915E0BFFD17E0BFF815E0BFFE17E0FFFD171885883AD2
:2003A800E0BFFA1500001206E0BFF91710800037E0BFFB15E0BFFB1710A0000C10000626A1
:2003B000E0BFF81710C00044E0FFF815E0FFFB1710C0000500000606E0FFF817E0BFFD170C
:2003B8001880071EE0BFFF171090000C1000061EE0FFF817E0BFFA1718BFEB360000030634
:2003C0000001883A000001060001883AE0FFF817E0BFFD1718800426E0FFF817E0BFFD178C
:2003C8001885C83A00000606E0BFFF171090000C1000022600BFFD440000010600BFFEC449
:2003D000E037883ADF000017DEC00104F800283ADEFFF904DF000615DF000604E13FFC1553
:2003D800E17FFD15E1BFFE15E1FFFF15E0BFFC1710800017E0BFFA15E0BFFE17E0FFFD173E
:2003E0001885883AE0BFFB1500000E06E0BFFA17108001041080003710BFFFEC10000926D6
:2003E800E0FFFA17E0BFFD1711000044E13FFD151080000310803FCC1080201C10BFE0041E
:2003F00018800035E0FFFD17E0BFFB1718BFEF36E0BFFE17E037883ADF000017DEC001045A
:2003F800F800283ADEFFFE04DFC00115DF000015D839883AD0A0071710000326D0A00717DB
:20040000103EE83A00000106D0A0BD04E037883ADFC00117DF000017DEC00204F800283AB0
:20040800DEFFFB04DFC00415DF000315DF000304E13FFF15E0BFFF17100008160140030404
:20041000E13FFF1700089FC01007883A0080007410A7CF041885883A000001060005883AAB
:20041800E0BFFD15E0BFFD1710001926E0BFFD17108000171080041710000626E0BFFD171D
:200420001080001710800417E13FFD17103EE83A000001060005883AE0BFFE15E13FFF1710
:2004280000096E80E0BFFE171000070E0008FE401007883AE0BFFE170085C83A18800015DD
:2004300000BFFFC4000007060005883A000005060008FE401007883A0080144418800015A7
:2004380000BFFFC4E037883ADFC00117DF000017DEC00204F800283ADEFFFF04DF000015CA
:20044000D839883A0001883AE037883ADF000017DEC00104F800283ADEFFFC04DF00031566
:20044800DF000304E13FFD15E17FFE15E1BFFF15E0BFFF17E037883ADF000017DEC001042E
:20045000F800283ADEFFFE04DFC00115DF000015D839883AD0A0071710000326D0A0071782
:20045800103EE83A00000106D0A0BD04E037883ADFC00117DF000017DEC00204F800283A58
:20046000DEFFFA04DFC00515DF000415DF000404E13FFE15E17FFF15E0BFFE171000032675
:20046800E0BFFE17108002171000061E000914401007883A008005841880001500BFFA84BA
:2004700000001306E0BFFE17E0FFFF17E0FFFC15E0BFFD15E0BFFD17E0FFFC1710C001157E
:20047800E0BFFC1710C00017E0BFFD1710C00015E0BFFC1710800017E0FFFD1710C0011501
:20048000E0BFFC17E0FFFD1710C000150005883AE037883ADFC00117DF000017DEC00204E1
:20048800F800283ADEFFFD04DFC00215DF000115DF0001040080007410A77004E0BFFF15BB
:2004900000000606E0BFFF1710800017103EE83AE0BFFF1710BFFF04E0BFFF15E0FFFF1745
:200498000080007410A7710418BFF62E0001883AE037883ADFC00117DF000017DEC002043C
:2004A000F800283ADEFFFD04DFC00215DF000115DF0001040080007410A77004E0BFFF15A3
:2004A80000000606E0BFFF1710800017103EE83AE0BFFF1710BFFF04E0BFFF15E0FFFF172D
:2004B0000080007410A7710418BFF62E0001883AE037883ADFC00117DF000017DEC0020424
:2004B800F800283ADEFFFF04DF000015D839883A0001883AE037883ADF000017DEC00104EE
:2004C000F800283ADEFFF804DFC00715DF000615DC000515DF000604E13FFB15E17FFC15B4
:2004C800E1BFFD15E1FFFE15E1BFFE17E17FFD17E13FFC17000958C0E0BFFA15E0BFFA1794
:2004D00010002216040000748427CF04E0BFFA17014003041009883A00089FC08085883ACD
:2004D80010C00017E0BFFB1710C00015040000748427CF04E0BFFA17014003041009883ABE
:2004E00000089FC08085883A1080010410C00017E0BFFB1710C00115040000748427CF04C5
:2004E800E0BFFA17014003041009883A00089FC08085883A1080020410C00017E0BFFB17C5
:2004F00010C00215E13FFA1700096E800001883AE6FFFF04DFC00217DF000117DC00001790
:2004F800DEC00304F800283ADEFFFB04DFC00415DF000315DF000304E13FFD15E17FFE15CF
:20050000E1BFFF1501C07FC401800044E17FFD17010000742127D2040009304001C07FC4DA
:20050800000D883AE17FFE17010000742127CF040009304001C07FC401800044E17FFF1747
:20051000010000742127D504000930400001883AE037883ADFC00117DF000017DEC00204CF
:20051800F800283ADEFFFE04DFC00115DF000015D839883AD0A0071710000326D0A00717B9
:20052000103EE83A00000106D0A0BD04E037883ADFC00117DF000017DEC00204F800283A8F
:20052800DEFFFB04DFC00415DF000315DC000215DF000304E13FFE15E0BFFE1710800217BF
:2005300010D00034E0BFFE1710C00215E03FFD1500002306040000748427CF04E0BFFD17F9
:20053800014003041009883A00089FC08085883A10C00017E0BFFE17108000171880151E45
:20054000040000748427CF04E0BFFD17014003041009883A00089FC08085883A108002040B
:200548001080001710000B0E01400304E13FFD1700089FC01007883A0080007410A7CF0489
:200550001887883AE0BFFE171880022600BFFCC400000806E0BFFD1710800044E0BFFD15F1
:20055800D0A006171007883AE0BFFD1718BFD92E0005883AE6FFFF04DFC00217DF0001172E
:20056000DC000017DEC00304F800283ADEFFF604DFC00915DF000815DF000804E13FFD15DC
:20056800E17FFE15E1BFFF1500BFFFC4E0BFF91500BFFB44E0BFFA15E03FFB15D160040409
:20057000E13FFD1700097900E0BFF815E0BFF8171000051EE13FFD1700098200E0BFF815BD
:2005780000800044E0BFFB15E0BFF81710002B26E13FF81700099280E0BFF915E0BFF9173B
:200580001000030EE0BFF917E0BFFA150000250601400304E13FF91700089FC01007883AFA
:200588000080007410A7CF041885883AE0BFFC15E0FFFE170090003410BFFFC41886703A34
:20059000E0BFFC1710C00215E0BFFB171000051EE13FFC1700094A00E0BFFA15E0BFFA17EA
:2005980010001016E0BFF8171080031710000826E0BFF81710800317E1FFFF17E1BFFE1774
:2005A000E17FFD17E13FFC17103EE83A000001060005883AE0BFFA150000020600BFFB44A2
:2005A800E0BFFA15E0BFFA171000090EE13FF91700096E80000946401007883AE0BFFA176F
:2005B0000085C83A1880001500BFFFC400000106E0BFF917E037883ADFC00117DF00001739
:2005B800DEC00204F800283ADEFFFC04DFC00315DF000215DC000115DF000204E13FFE1591
:2005C000E0BFFE17108000D01000111E040000748427CF04E0BFFE17014003041009883AFB
:2005C80000089FC08085883A1080020410000015040000748427CF04E0BFFE170140030438
:2005D0001009883A00089FC08085883A100000150001883AE6FFFF04DFC00217DF00011783
:2005D800DC000017DEC00304F800283ADEFFFF04DF000015D839883A000170FA0001883A3C
:2005E000E037883ADF000017DEC00104F800283ADEFFFA04DFC00515DF000415DF000404BC
:2005E800E13FFE15E17FFF15E0BFFF1710800017E0BFFC15E13FFE1700087D401080004472
:2005F000E0BFFD1500000D06E0BFFC1710800217E0FFFD17180D883AE17FFE171009883AA2
:2005F8000009A7801000021EE0BFFC1700000706E0BFFC1710800017E0BFFC15E0FFFC17C9
:20060000E0BFFF1718BFF01E0005883AE037883ADFC00117DF000017DEC00204F800283AF5
:20060800DEFFFB04DFC00415DF000315DF000304E13FFF15D0A00217E0BFFD1500003106BC
:20061000E0BFFD17108002171009883A00087D40E0BFFE15E0BFFD1710C00217E0BFFE17CC
:2006180010BFFFC41885883A1080000310803FCC1080201C10BFE00410800BD81000031E80
:20062000E0BFFE1710BFFFC4E0BFFE15E0BFFE17E0FFFF171885883A1080000310803FCC8C
:200628001080201C10BFE00410800BE01000081EE0BFFE17E0FFFF171885883A10800003E7
:2006300010803FCC1080201C10BFE00410000A1EE0BFFD1710800217E0FFFE17180D883A21
:20063800E17FFF171009883A0009A7801000021EE0BFFD1700000706E0BFFD1710800017D7
:20064000E0BFFD15E0FFFD17D0A0020418BFCC1E0005883AE037883ADFC00117DF00001772
:20064800DEC00204F800283ADEFFFA04DFC00515DF000415DC000315DF000404E13FFE15FA
:2006500000BFFA04E0BFFD15E03FFC1500001D06040000748427CF04E0BFFC1701400304D9
:200658001009883A00089FC08085883A108000171000111E040000748427CF04E0BFFC17EB
:20066000014003041009883A00089FC08085883AE0FFFE1710C00015D0E00617E0BFFC17D1
:200668001880020EE0BFFC17D0A00615E0BFFC17E0BFFD1500000606E0BFFC171080004498
:20067000E0BFFC15E0BFFC1710800810103FE01EE0BFFD17E6FFFF04DFC00217DF000117C9
:20067800DC000017DEC00304F800283A200B883A000F883A000D883A0009883A0009AA81E4
:20068000DEFFFE04000B883ADC000015DFC001152021883A0009C0008009883A0009D9000F
:20068800DEFFFD04DFC00215DC000115D94000152021883A00087D40100F883A0080007401
:20069000D940001710A830041100001700C0007418E1C70428C00115800D883A000871C088
:2006980010BFFFE00085C83ADFC00217DC000117DEC00304F800283A218D883A2180082623
:2006A0002080000328C0000310C0022610C5C83AF800283A2100004429400044003FF70635
:2006A8000005883AF800283A0080007410A82F0410C00017DEFFF904DC0000151C000C1741
:2006B000DD400515DD000415DCC00315DC800215DC400115DFC00615202B883A2823883AD0
:2006B8003027883A3825883A1029883A8000021E1C000D041C000C158080011700C007C442
:2006C0001880110E00800034108000041000021E00BFFFC40000310601002304000000000A
:2006C8001021883A103FFA2610000115A080001710C00C1780C0001514000C15800022151F
:2006D000A8001D2600000606A8001B26808022171000091E0080003410800004103FEC2611
:2006D8000100420400000000103FE92610004015100041158080221581400117010000443D
:2006E0002947883A18C7883A10C7883A1CC000152148983A11404017290AB03A11404015F7
:2006E8001C80201500C00084A8C0031E10C041171908B03A110041158080011710C000448E
:2006F000108000841085883A1085883A80C0011580A1883A844000150005883ADFC0061793
:2006F800DD400517DD000417DCC00317DC800217DC400117DC000017DEC00704F800283A5C
:20070000DEFFF504DD00051505000074DC800315DFC00A15DF000915DDC00815DD80071531
:20070800DD400615DCC00415DC400215DC000115D90000152825883AA5282F04A4400017C7
:200710008CC00C178C400C04980045269C0001170090003410BFFFC49D40221785BFFFC454
:2007180080A1883A8421883A8421883AAC2F883A840002049C21883AB000271690000726C0
:20072000A800041EB5BFFFC4BDFFFF04843FFF04003FF906B9002017913FFA1E990001176C
:2007280082000017213FFFC4B100021E9D8001150000010680000015403FF2269F00011707
:20073000A8000526008000441592983AA9404017494A703A2800021E403EE83A0000090625
:20073800A90041174908703A2000041EB9400017D9000017403EE83A00000206B9000017EB
:20074000403EE83A99000117E13FCC1E89000017993FDC26003FC90600800034108000046E
:2007480010000F2699400117990000172800091E2000082689000015A8000226A809883A2D
:20075000000000009809883A000000008CC00017003FBD069823883A2027883A003FBA063C
:20075800DFC00A17DF000917DDC00817DD800717DD400617DD000517DCC00417DC8003172B
:20076000DC400217DC000117DEC00B04F800283ADEFFFD04DF000215DF000204E13FFF155C
:200768000001883AE0BFFF17E0BFFE15E0BFFE1710000226002AF07000000106002AF0B000
:20077000003FFF060A206425000000006C6C65480000006F7665642F61746A2F61755F6706
:20077800305F7472000000007665642F61746A2F61755F67305F7472000000007665642F91
:200780006C756E2F0000006C0000000000000000000000000000000000000000000000006F
:20078800000000000000000000000000000000000000000000000000000000000000000051
:20079000000000000000000000000000000000000000000000000000000000000000000049
:20079800000000000000000000000000000000000000000000000000000000000000000041
:2007A000000000000000000000000000000000000000000000000000000000000000000039
:2007A800000000000000000000000000000000000000000000000000000000000000000031
:2007B000000000000000000000000000000000000000000000000000000000000000000029
:2007B800000000000000000000000000000000000000000000000000000000000000000021
:2007C000000000000000000000000000000000000000000000000000000000000000000019
:2007C800000000000000000000000000000000000000000000000000000000000000000011
:2007D000000000000000000000000000000000000000000000000000000000000000000009
:2007D800000000000000000000000000000000000000000000000000000000000000000001
:2007E0000000000000000000000000000000000000000000000000000000000000000000F9
:2007E8000000000000000000000000000000000000000000000000000000000000000000F1
:2007F0000000000000000000000000000000000000000000000000000000000000000000E9
:2007F8000000000000000000000000000000000000000000000000000000000000000000E1
:200800000000000000000000000000000000000000000000000000000000000000000000D8
:200808000000000000000000000000000000000000000000000000000000000000000000D0
:200810000000000000000000000000000000000000000000000000000000000000000000C8
:200818000000000000000000000000000000000000000000000000000000000000000000C0
:200820000000000000000000000000000000000000000000000000000000000000000000B8
:200828000000000000000000000000000000000000000000000000000000000000000000B0
:200830000000000000000000000000000000000000000000000000000000000000000000A8
:2008380000009EC800009ED000009ED8000000000000000000000000000000000000000056
:20084000000000000000000000000000000000000000000000000000000000000000000098
:20084800000000000000000000000000000000000000000000000000000000000000000090
:20085000000000000000000000000000000000000000000000000000000000000000000088
:20085800000000000000000000000000000000000000000000000000000000000000000080
:20086000000000000000000000000000000000000000000000000000000000000000000474
:20086800000000000001000A000000000002000A0000000000000000000000000000000059
:200870000000000000009DE8000000000000000000008DA400008E04000000000000000020
:2008780000000000000110180000A0CC0000A0CC00009DFC000000000000000000000000C6
:200880000000911800000000000000000000000000009F14000000000000000000009F1449
:20088800000000000000000000009F1400000000000000000000000000000000000000009D
:20089000000000000000000000000000000000000000000000000000000000000000000048
:20089800000000000000000000000000000000000000000000000000000000000000000040
:2008A000000000000000000000000000000000000000000000000000000000000000000038
:2008A800000000000000000000000000000000000000000000000000000000000000000030
:2008B000000000000000000000000000000000000000000000000000000000000000000028
:2008B800000000000000000000000000000000000000000000000000000000000000000020
:2008C000000000000000000000000000000000000000000000000000000000000000000018
:2008C800000000000000000000000000000000000000000000000000000000000000000010
:2008D000000000000000000000000000000000000000000000000000000000000000000008
:2008D800000000000000000000000000000000000000000000000000000000000000000000
:2008E0000000000000000000000000000000000000009E0800009E080000A0C40000A0C4E4
:2008E80000009F1400009F14FFFFFFFF00000000000000000000000000000000000000008E
:2008F0000000000000000000000000000000000000000000000000000000000000000000E8
:2008F8000000000000000000000000000000000000000000000000000000000000000000E0
:200900000000000000000000000000000000000000000000000000000000000000000000D7
:200908000000000000000000000000000000000000000000000000000000000000000000CF
:00000001FF
